:100000000C942A000C944B030C9447000C9447006A
:100010000C9447000C9447000C9447000C94470044
:100020000C9447000C9447000C9447000C94470034
:100030000C9447000C9447000C9447000C94470024
:100040000C9447000C9447000C9447000C94470014
:100050000C94470011241FBECFE5D8E0DEBFCDBF12
:1000600010E0A0E6B0E0E6ECF7E002C005900D92EB
:10007000A836B107D9F720E0A8E6B0E001C01D928C
:10008000AB36B207E1F70E948E010C94E1030C94A9
:100090000000CF9310926A0060E081E40E941F018B
:1000A00062E082E40E941F010E94B203C1E0C0939B
:1000B0006A0022E441E461E081E00E94390160E0ED
:1000C00081E40E94280162E082E40E94280182E02B
:1000D00080936A0062E081E40E941F0160E082E494
:1000E0000E941F010E94B203C0936A0022E441E40F
:1000F00061E081E00E94390162E081E40E94280110
:1001000060E082E40E942801CF91089560E081E4DC
:100110000E94160161E081E40E94160162E081E420
:100120000E94160160E082E40E94160161E082E410
:100130000E94160162E082E40E941601789480E633
:1001400090E00E942C0380E690E00E943C030E9415
:100150004900FDCF60E081E40E94280161E081E474
:100160000E94280162E081E40E94280160E082E4AC
:100170000E94280161E082E40E94280162E082E49A
:100180000E94280108950E94AA0080916A0082308E
:1001900008F562E082E40E941F0160E081E40E94B1
:1001A0001F0122E441E461E081E00E94390162E044
:1001B00082E40E94280160E081E40E94280162E05C
:1001C00081E40E941F0160E082E40E941F010E94FE
:1001D000B2030CC0823051F462E081E40E941F013E
:1001E00060E082E40E941F010E94B20362E081E4A9
:1001F0000E94280122E441E461E081E00E9439018B
:1002000060E082E40E941F010E94B20360E082E489
:100210000E94280162E082E40E941F0160E081E404
:100220000E941F0108950E94C3000895982F862FF1
:1002300041E0692F0E949301811181E00895982F78
:10024000862F41E0692F0E941E02811181E00895EE
:10025000982F862F40E0692F0E941E02811181E0B5
:100260000895982F862F692F0E94BA02811181E08C
:100270000895EF92FF920F931F93CF93DF93E82E91
:10028000F62E042F122F83B78F7B83BF83B7877F10
:1002900083BF28E030E040E050E060E070E0CB0158
:1002A0000E94740388E382BFC0E0D0E02CC082B714
:1002B0008111FDCF9E013695279536952795A7E3A9
:1002C000BAE10E94D2030024880F991F001C880FF6
:1002D000991F001C892F902D44EC59E0849F9001B8
:1002E000859F300D949F300D1124C217D30741F420
:1002F0006E2D802F0E9431016F2D812F0E943101C0
:1003000088E382BF2196C83A81E6D80780F2DF9160
:10031000CF911F910F91FF90EF9008950E9486005A
:1003200080E090E00895623459F118F4613441F0AE
:100330000895633409F444C0643409F460C0089536
:1003400041110EC04AB321E030E0B90102C0660F8E
:10035000771F8A95E2F7CB01809584238ABB0895A5
:10036000413009F06AC04AB321E030E0B90102C06F
:10037000660F771F8A95E2F7CB01842B8ABB08951D
:1003800041110EC047B321E030E0B90102C0660F51
:10039000771F8A95E2F7CB018095842387BB089568
:1003A000413009F04AC047B321E030E0B90102C052
:1003B000660F771F8A95E2F7CB01842B87BB0895E0
:1003C00041110EC044B321E030E0B90102C0660F14
:1003D000771F8A95E2F7CB018095842384BB08952B
:1003E000413059F544B321E030E0B90102C0660F55
:1003F000771F8A95E2F7CB01842B84BB08954111C6
:100400000EC041B321E030E0B90102C0660F771F92
:100410008A95E2F7CB018095842381BB0895413012
:1004200061F441B321E030E0B90102C0660F771FEB
:100430008A95E2F7CB01842B81BB0895623469F180
:1004400018F4613441F08DC0633409F448C0643459
:1004500009F466C086C041110FC04BB321E030E003
:10046000B90102C0660F771F8A95E2F7CB0180952C
:1004700084238BBB80E00895413009F073C04BB3F7
:1004800021E030E0B90102C0660F771F8A95E2F7DC
:10049000CB01842B8BBB80E0089541110FC048B382
:1004A00021E030E0B90102C0660F771F8A95E2F7BC
:1004B000CB018095842388BB80E00895413009F00A
:1004C00053C048B321E030E0B90102C0660F771F86
:1004D0008A95E2F7CB01842B88BB80E00895411117
:1004E0000FC045B321E030E0B90102C0660F771FAD
:1004F0008A95E2F7CB018095842385BB80E008953F
:100500004130A1F545B321E030E0B90102C0660FEA
:10051000771F8A95E2F7CB01842B85BB80E0089595
:1005200041110FC042B321E030E0B90102C0660FB3
:10053000771F8A95E2F7CB018095842382BB80E008
:1005400008954130A9F442B321E030E0B90102C07E
:10055000660F771F8A95E2F7CB01842B82BB80E080
:100560000895089581E0089581E0089581E0089557
:1005700081E008956234B9F018F4613431F03DC07F
:100580006334F9F0643459F138C04BB321E030E002
:10059000B90102C0660F771F8A95E2F7CB01842765
:1005A0008BBB80E0089548B321E030E0B90102C080
:1005B000660F771F8A95E2F7CB01842788BB80E01E
:1005C000089545B321E030E0B90102C0660F771FFE
:1005D0008A95E2F7CB01842785BB80E0089542B37A
:1005E00021E030E0B90102C0660F771F8A95E2F77B
:1005F000CB01842782BB80E0089581E008950097B5
:1006000011F481E00895FC012081211118C081813D
:10061000813051F028F0823059F0833069F00FC0FA
:1006200095B7892B85BF0BC095B7892B85BF07C0B0
:1006300095B7892B85BF03C095B7892B85BF0895D2
:10064000009711F481E00895FC018081811103C0BD
:100650008BB780648BBF0895CF93DF93009741F0F1
:10066000EC010E94FF02CE010E94200380E001C045
:1006700081E0DF91CF910895009711F481E0089512
:10068000FC012081211106C0828193819093690031
:100690008093680008951F920F920FB60F92112455
:1006A0002F933F934F935F936F937F938F939F937A
:1006B000AF93BF93EF93FF93E0916800F0916900CF
:1006C000309709F00995FF91EF91BF91AF919F91FC
:1006D0008F917F916F915F914F913F912F910F90EB
:1006E0000FBE0F901F901895672B682B692BB1F5E3
:1006F000211531054105510529F483B7816083BF78
:1007000080E00895283031054105510529F483B76B
:10071000826083BF80E00895203431054105510592
:1007200041F483B7816083BF83B7826083BF80E079
:100730000895211581E038074105510529F483B753
:10074000846083BF80E00895211534404105510540
:1007500039F483B7816083BF80E0089581E0089514
:1007600081E0089583B78F7B83BF83B7877F83BF83
:1007700028E030E040E050E060E070E0CB010E9413
:10078000740388E382BF20E030E007C082B78111A4
:10079000FDCF88E382BF2F5F3F4F283A81E63807BD
:1007A000A8F30895A29FB001B39FC001A39F700D4D
:1007B000811D1124911DB29F700D811D1124911D69
:0607C0000895F894FFCF3C
:0807C600000313010000000014
:00000001FF
